:020000040001F9
:10C0000050AE00207DC5010085C5010087C5010037
:10C0100089C501008BC501008DC50100000000002D
:10C020000000000000000000000000008FC50100BB
:10C0300091C501000000000093C5010095C50100F5
:10C0400097C5010097C50100FD9102009984020087
:10C05000AD84020097C501002D200200057F02007B
:10C0600097C5010097C5010097C5010097C501005C
:10C0700097C5010097C5010097C5010097C501004C
:10C0800097C50100917D020097C5010097C5010089
:10C09000A785020097C50100B185020097C5010080
:10C0A00097C5010097C5010097C5010097C501001C
:10C0B00097C5010097C501000000000000000000C6
:10C0C00097C5010097C5010097C50100C184020012
:10C0D00097C5010097C5010097C501000000000049
:10C0E0000000000000000000000000000000000050
:10C0F0000000000000000000000000000000000040
:10C10000000000000000000000000000000000002F
:10C11000000000000000000000000000000000001F
:10C40000DFF80CD000F0C8FD004800471D750300A0
:10C4100050AE0020401E00BF00BF00BF00BF00BFE5
:10C4200000BF00BF00BF00BF00BF00BF00BF00BF14
:10C4300000BF00BF00BF00BF00BF00BF00BF00BF04
:10C4400000BF00BF00BF00BF00BF00BF00BF00BFF4
:10C4500000BF00BF00BF00BF00BF00BF00BF00BFE4
:10C4600000BF00BF00BF00BF00BF00BF00BF00BFD4
:10C4700000BF00BF00BF00BF00BF00BF00BF00BFC4
:10C4800000BF00BF00BFC5D170470000401E00BF05
:10C4900000BF00BF00BF00BF00BF00BF00BF00BFA4
:10C4A00000BF00BF00BF00BF00BF00BF00BF00BF94
:10C4B00000BF00BF00BF00BF00BF00BF00BF00BF84
:10C4C00000BF00BF00BF00BF00BF00BF00BF00BF74
:10C4D00000BF00BF00BF00BF00BF00BF00BF00BF64
:10C4E00000BF00BF00BF00BF00BF00BF00BF00BF54
:10C4F00000BF00BF00BF00BF00BF00BF00BFC5D16D
:10C5000070470000401E00BF00BF00BF00BF00BF5B
:10C5100000BF00BF00BF00BF00BF00BF00BF00BF23
:10C5200000BF00BF00BF00BF00BF00BF00BF00BF13
:10C5300000BF00BF00BF00BF00BF00BF00BF00BF03
:10C5400000BF00BF00BF00BF00BF00BF00BF00BFF3
:10C5500000BF00BF00BF00BF00BF00BF00BF00BFE3
:10C5600000BF00BF00BF00BF00BF00BF00BF00BFD3
:10C5700000BF00BF00BFC5D170470000064880471C
:10C5800006480047FEE7FEE7FEE7FEE7FEE7FEE7B8
:10C59000FEE7FEE7FEE7FEE7A18D020001C4010011
:10C5A0002DE9F0410024061B254671F1000605DA4D
:10C5B00001240027D0EB070067EB0101161E73F181
:10C5C000000605DA0027D2EB0702012567EB03031B
:10C5D00000F038FB86460E4617469C46AC4204D017
:10C5E0000025D0EB050E65EB010624B10020D2EB4F
:10C5F000000760EB030C704631463A466346BDE8DF
:10C60000F081202A04DB203A00FA02F10020704772
:10C610009140C2F1200320FA03F319439040704780
:10C62000202A06DBCB17203A41FA02F043EAE073F6
:10C6300006E041FA02F3D040C2F1200291400843E3
:10C640001946704740EA01039B0703D009E008C977
:10C65000121F08C0042AFAD203E011F8013B00F8C7
:10C66000013B521EF9D27047D2B201E000F8012B13
:10C67000491EFBD270470022F6E710B513460A4662
:10C6800004461946FFF7F0FF204610BD421C10F883
:10C69000011B0029FBD1801A704710B5002200E071
:10C6A000521C835C8C5CA34201D1002BF8D1D8B220
:10C6B000E1B2401A10BD30B504460020034600E048
:10C6C0005B1C934203D2E05CCD5C401BF8D030BDD4
:10C6D00070B50F4D00B92868002412E00A4602E048
:10C6E0009E4203D0521C1378002BF9D1DAB22243B8
:10C6F00005D02BB124B1002100F8011B04E0044651
:10C70000401C0678002EE9D12860204670BD00004C
:10C71000482500202DE9F05F93460F4680460446E9
:10C7200000260CF0E5FED0F80090824614F8015B7C
:10C730002DB100F0C9FA0068405DC007F6D12B2D7D
:10C7400002D02D2D1AD0641E0021CAF800105A46BE
:10C750003946204600F0BCFA014627B13868A042AD
:10C7600001D1C7F80080DAF80000022809D0CAF821
:10C770000090700505D54842BDE8F09F46F48066FC
:10C78000E2E70846F8E770B506460CF0B1FE04682B
:10C7900005460A220021304600F0E9FA2C6070BDFF
:10C7A0002DE9FE4F804681EA0300C00F0C46009041
:10C7B00021F0004123F00045B8EB0200A94105D269
:10C7C0004046214690461C460B46024623F0004058
:10C7D000104347D0270DC7F30A00C3F30A51029054
:10C7E000401A019040286BDAC3F3130040F4801B19
:10C7F0000098924620B10023D2EB030A63EB0B0BA7
:10C8000001985946C0F140025046FFF7FAFE06462D
:10C810000D4650465946019AFFF702FF10EB0800FB
:10C820006141002487EA115284EAE7731A4340D039
:10C83000009A62B3019A012A4FEA075215DC001BE5
:10C8400061EB02014FF0004202EA0752CDE90042DB
:10C85000001C41F5801132462B4600F006FB03B068
:10C86000BDE8F08F40462146F9E7001B61EB02016D
:10C87000001C41F5801300185B412018A2F5001739
:10C8800047EB030140EAD570B6196D4111E06D0820
:10C890004FEA360645EAC0754FEA0752001B61EBC6
:10C8A0000201001C41F5801149084FEA30000019CF
:10C8B000514132462B4603B0BDE8F04F00F0C6BAF6
:10C8C0000098012240000023D0EB020263EBE073EA
:10C8D000009821464FEAE074B8EB000061EB0401D8
:10C8E000E9E783F000435BE781F0004158E72DE979
:10C8F000FE4F81EA030404F0004421F0004100945B
:10C900004FF0000B23F0004350EA01045ED052EADE
:10C9100003045BD0C3F30A54C1F30A552C44A4F2B8
:10C92000F3340194A0FB0254C1F3130141F48011CC
:10C93000C3F3130343F4801301FB024400FB034ED3
:10C94000840A970A44EA815447EA8357A4FB07689C
:10C9500002958D0A05FB07854FEA932C04FB0C54C6
:10C960002705029D4FEA065847EA1637B5EB08053A
:10C970006EEB070C870E920E47EA811742EA83128C
:10C98000A7FB0201B6EB0B0164EB00042B0D43EA9D
:10C990000C335E1844EB1C50DA465146E7FB0201AB
:10C9A000C5F313044FEA0B3343EA14534FEA04323E
:10C9B000019C43EA0603A4F10C040294009CCDE917
:10C9C00000B400F052FA03B0BDE8F08F0020014639
:10C9D000F9E72DE9F04D81EA030404F0004B21F062
:10C9E000004514464FF0000A23F0004150EA0502CA
:10C9F00020D054EA01021DD0C5F30A570246C5F300
:10CA00001303C1F31300C1F30A5640F4801543F435
:10CA10008013A7EB0608101BD64608F2FD3873EB0F
:10CA2000050002D308F1010801E092185B41B8F15A
:10CA3000000F03DA00200146BDE8F08D00204FF41E
:10CA40008011064684460EE0171B73EB050705D3DD
:10CA5000121B63EB050306434CEA010C49084FEA3D
:10CA6000300092185B4150EA0107EDD152EA030011
:10CA700012D082EA040083EA0501084305D0101BA6
:10CA8000AB4106D20122002306E000224FF0004312
:10CA900002E06FF0010253101AEB06004CEB085154
:10CAA00010EB0A0041EB0B01BDE8F04D00F0CEB9F0
:10CAB000F0B4CA17CB0F50405140C61841F10005E1
:10CAC0004FEAC372314628004FF0960303D0B623D5
:10CAD000F0BC00F08DB930460021F9E70EB5C10F6A
:10CAE00080EAE0700844CA07002140F233438DE831
:10CAF0000E000A460B4600F0B8F903B000BD0EB5B3
:10CB000040F2334102910021CDE900110A460B4663
:10CB100000F0ABF903B000BD70B5C1F30A5201F0EB
:10CB200000450024C1F3130140F2FF3341F48011AA
:10CB30009A4201DA002070BD40F233439A42A2F2D9
:10CB4000334203DC524200F0AEF800E090402C4348
:10CB5000F1D0404270BDC1F30A5210B5C1F31301C8
:10CB600040F2FF3341F480119A4201DA002010BDF7
:10CB700040F233439A42A2F2334203DC524200F0C5
:10CB800092F810BD904010BD00F0004230F000401F
:10CB90000AD0C10D01F56071C0F3160042EA0151DF
:10CBA000C20840071143704700200146704700004B
:10CBB00030B5041E71F1000404DB4FF00044404224
:10CBC00064EB0101141E73F1000405DB1C464FF0F9
:10CBD0000043524263EB04038B4208BF824230BDE4
:10CBE00001F0004330B421F0004150EA010206D0C8
:10CBF0000A0DA2F56072C1F31301002A02DC30BCF9
:10CC000000207047440F44EAC104C100E01830BC62
:10CC100000EBC25000F0E3B830B50B4601460020EF
:10CC20002022012409E021FA02F59D4205D303FAEE
:10CC300002F5491B04FA02F52844151EA2F101026F
:10CC4000F1DC30BD2DE9F05F0546002092469B46A1
:10CC500088460646814640241BE028464146474612
:10CC6000224600F020F853465A46C01A914110D38C
:10CC7000114618462246FFF7C4FC2D1A67EB01083F
:10CC80004F46224601200021FFF7BBFC17EB0009AD
:10CC90004E41201EA4F10104DFDC484631462A46FD
:10CCA0004346BDE8F09F202A04DB203A21FA02F037
:10CCB0000021704721FA02F3D040C2F120029140D6
:10CCC00008431946704700000048704794FB030072
:10CCD0002DE9F05F82460078002715468B460AF161
:10CCE0000104B946302801D09DB113E014F8010BBE
:10CCF0000127782803D0582801D045B10AE00DB1AA
:10CD0000102D07D10027102514F8010B02E008258B
:10CD100000E00A250026B0460EE005FB080005FBF2
:10CD200006F1012701EB10461FFA80F8B6F5803FA7
:10CD300000D3B94614F8010B294600F03FF900284A
:10CD4000EBDABBF1000F05D00FB1641E00E05446D2
:10CD5000CBF80040B9F1000F06D00CF0C9FB02215E
:10CD60000160C81EBDE8F09F48EA0640FAE72DE9D9
:10CD7000F04791460F4680460446002614F8015BB2
:10CD80002DB1FFF7A1FF0068405DC007F6D12B2D44
:10CD900002D02D2D18D0641E4A4639462046FFF792
:10CDA00097FF27B13968A14201D1C7F8008071050A
:10CDB0004FF002040BD54042002803DD0CF098FB35
:10CDC0000460A007BDE8F08746F48066E4E7002829
:10CDD000F8DA0CF08DFB04606FF00040F2E70029F8
:10CDE000A8BF7047401C490008BF20F001007047F1
:10CDF00010B4B0FA80FC00FA0CF050EA010404BF51
:10CE000010BC704749B1CCF1200421FA04F411FAA6
:10CE10000CF118BF012121430843A3EB0C01CB1DEA
:10CE20004FEA00614FEA102042BF002010BC70475B
:10CE300000EBC35010440029A4BF10BC7047401C35
:10CE4000490008BF20F0010010BC704710B5141E47
:10CE500073F1000408DA401C41F1000192185B41B3
:10CE60001A4301D120F0010010BD2DE9F04D92468A
:10CE70009B4611B1B1FA81F202E0B0FA80F22032A1
:10CE80009046FFF7BEFB04460F4640EA0A0041EA1F
:10CE90000B0153465A46084313D0114653EA01008A
:10CEA00019D0C8F140025046FFF7FDFE05460E4678
:10CEB000504659464246FFF7A4FB084305D00120DF
:10CEC00004E020463946BDE8F08D0020054346EADF
:10CED000E0762C4337430A986305E40AA0EB080088
:10CEE0000022FD0A44EA47540A3002D500200146D8
:10CEF000E9E7010510196941DDE9084500196941B3
:10CF0000BDE8F04DA2E770B521F0004303430CD01B
:10CF1000C1F30A550024D5EB040564EB0403D617CE
:10CF2000AD1AB34102DB0020014670BD201841EB71
:10CF3000025170BDC1F30A52C1F3130140F2FF3335
:10CF400041F480119A4202DA00200146704740F213
:10CF500033439A42A2F2334202DC5242FFF7A3BEAD
:10CF6000FFF74FBB30B5041E71F1000404DB4FF036
:10CF70000044404264EB0101141E73F1000405DB20
:10CF80001C464FF00043524263EB0403994208BF32
:10CF9000904230BD00207047064C074D06E0E06827
:10CFA00040F0010394E8070098471034AC42F6D3F0
:10CFB000FFF72AFAC0FD0300E0FD03003A2800D283
:10CFC000303820F02002412A01D3A2F137008842F4
:10CFD00001D34FF0FF3070472DE9F04D00231A4682
:10CFE0001B1A8A4103DB00200146BDE8F08DC1F326
:10CFF0000A52C1F3130141F480154FF0000BD10721
:10D0000002D100186D41521E0027044640F2FF1164
:10D01000384601EB620A3E468046024600204FF445
:10D020008011FFF740FEC2197141BB1846EB0100A9
:10D03000B4EB030C75EB000C04D3E41A65EB0005AC
:10D0400017460E46241908F101006D418046342828
:10D05000E3DDF91946EB0600091BA84103D24FF0A6
:10D06000FF32134601E0002213461BEB070046EB9C
:10D070000A51BDE8F04DFFF7E9BE70B58C1810F805
:10D08000015B15F0070301D110F8013B2A1106D10D
:10D0900010F8012B03E010F8016B01F8016B5B1E27
:10D0A000F9D12B0705D40023521E0DD401F8013B02
:10D0B000FAE710F8013BCB1A921C03E013F8015B6E
:10D0C00001F8015B521EF9D5A142D8D3002070BDF2
:10D0D0002DE9F0412DED108B88B004460D46164623
:10D0E0004FF000080027182012F042FF07460820E2
:10D0F00012F03EFF80469FEDA51B9FEDA60B0CF0A6
:10D10000AFFBB0EE40CAF0EE60CAA4494889FFF711
:10D11000F6FC41EC1D0B53EC1C2BFFF7E8FB41EC3C
:10D120001A0B3846FFF7EBFC41EC1B0B53EC1A2BA8
:10D13000FFF7D7FB41EC180B9FED991B9FED950B6B
:10D140000CF08EFBB0EE40CAF0EE60CA934908893D
:10D15000FFF7D5FC41EC1E0B53EC182BFFF7C7FB78
:10D1600041EC1D0B53EC1C2BFFF733FC41EC1A0B6D
:10D170009FED8D1B9FED870B0CF072FBB0EE40DA3C
:10D18000F0EE60DA85498888FFF7B9FC41EC1C0BAA
:10D1900053EC1D2BFFF7ABFB41EC1B0B53EC1A2B95
:10D1A000FFF7FEFACDE904019FED811B9FED790B9E
:10D1B0000CF056FBB0EE40CAF0EE60CA7749C88862
:10D1C000FFF79DFC41EC1E0B53EC182BFFF78FFB78
:10D1D00041EC1D0B53EC1C2BFFF7FBFB41EC1A0B36
:10D1E0009FED751B9FED6B0B0CF03AFBB0EE40CA48
:10D1F000F0EE60CA69494888FFF781FC41EC1D0BDD
:10D2000053EC1C2BFFF773FB41EC1B0B53EC1A2B5D
:10D21000FFF7C6FACDE902019FED691B9FED5D0B9B
:10D220000CF01EFBB0EE40CAF0EE60CA5B49888984
:10D23000FFF765FC41EC1E0B53EC182BFFF757FB77
:10D2400041EC1D0B53EC1C2BFFF7C3FB41EC1B0BFC
:10D250009FED5D0B53EC102BFFF7A2FA41EC1A0B7C
:10D260009FED5B0B53EC102BFFF7B3FBCDE90601F1
:10D270009FED591B9FED470B0CF0F2FAB0EE40BA50
:10D28000F0EE60BA9FED561B9FED420B0CF0E8FAF2
:10D29000B0EE40EAF0EE60EA4046FFF730FC41ECC9
:10D2A0001F0B9DED020B53EC102BFFF720FB53ECF3
:10D2B0001E2BCDE900019DED000B51EC100BFFF78B
:10D2C00088FB41EC1D0B9DED040B53EC102BFFF77D
:10D2D00008FB41EC1C0B53EC1B2BFFF77AFB41ECDA
:10D2E0001A0B9FED3B0B53EC102BFFF772FB41EC3D
:10D2F000190B9FED3D0B53EC102B51EC190BFFF765
:10D3000068FB41EC1E0B9FED3A1BB0EE4E0AF0EEAF
:10D310006E0A0CF0A5FAB0EE40DAF0EE60DA9FED9E
:10D32000360B53EC102B51EC1D0BFFF7DDFA41ECE3
:10D330001C0B9FED330B53EC102BFFF7D8FA41EC8D
:10D340001A0B9FED310B53EC102BFFF7D0FA41EC89
:10D350001B0BFFF745FC30609DED060B51EC100BED
:10D36000FFF73EFC20609FED1A0B53EC102B51ECA5
:10D37000190BFFF7BCFA41EC1A0BFFF731FC2860E0
:10D3800008B0BDEC108BBDE8F0810000000000008B
:10D3900000002040000000000000004096460020F1
:10D3A00000000000000018400000000000003140B4
:10D3B0000000000000001C400000000000003040A1
:10D3C00000000000000037400000000000409F40C7
:10D3D00000000000000059400000000000002E4046
:10D3E00000000000000035400000000000AA8F404F
:10D3F0003CDD79E2395BC83F000000000000F03FEF
:10D400009A999999B3BE0141FD87F4DBD781D33F47
:10D4100070B5002507E0E8B213F04AFA0C4921F88C
:10D42000150000BF6D1C082DF5DB09480088060BB0
:10D43000074800F027F80446A64206D022463146A7
:10D4400004A00CF005F800BF00E000BF70BD0000B4
:10D4500096460020414E3532302043524320696EBB
:10D460006974206572726F72205B256420213D20F3
:10D4700025645D0010B51E2019F034FC03201AF05D
:10D480004BFA10BD30B5034600211888C0F30B00DD
:10D4900018800020D881002226E0104602EBD075CB
:10D4A0006D10A2EB4505012D04D1501013F81000AA
:10D4B000414004E0501033F8100081EA2021082494
:10D4C0000EE001F4004028B14FF4405080EA4100E2
:10D4D00081B203E04FF6FF7000EA4101601EC4B262
:10D4E000002CEEDC501C82B2102AD6DB090BC8B22D
:10D4F00030BD70B500F54054054694F8110601287A
:10D5000052D194F8500601284ED1D4F884136429DE
:10D510004ADAB4F94C26B5F94C00824203DCB5F97D
:10D520004E309A421ADA94F85124BAB9B4F9122654
:10D53000B5F94E309A4211DD82420FDAB4F9E604B1
:10D54000002831DDB4F9E804042804DA28460BF099
:10D5500061FE012828D1B4F89E0423E094F8510616
:10D56000012821D194F8C00601281DD146291BDDD0
:10D57000B4F9E604002817DDB4F9E804042804DA55
:10D5800028460BF047FE01280ED1B4F99E04B4F9E9
:10D590004C16884208DA0A39884205DDB5F94E1082
:10D5A000884201DDA4F84C0670BD000000B599B0BA
:10D5B000C648007820B90020C549087019B000BDE0
:10D5C000C348007800B9F9E7C0484078002877D10F
:10D5D000BF4800780128FAD1BE480088B0F5B95F8D
:10D5E00003DB4FF4C860BB490880BA480088BA49D9
:10D5F0000988884217D10020B5490870B5490880CC
:10D60000B5490880B5490860B5490860B549086062
:10D61000BF208DF8500000208DF85100022114A881
:10D6200010F070FFCAE7AF480268AA48018808A84E
:10D6300016F0B8FAA7480088401CA6490880A648FA
:10D64000028808460188A8A00BF002FFA5480168DF
:10D65000ADA00BF0FDFEB5A008990BF0F9FEBDF9E9
:10D660002C00BDF92A10BDF92820BDF93430CDE9D0
:10D670000332CDE90510BDF93200BDF93010BDF916
:10D680002E20CDE900210290BDF93E30AD48129A1E
:10D6900009990BF0DDFEBDF83C000090BDF83A3072
:10D6A000BDF83820BDF93610A7A00BF0D1FE9DF8CB
:10D6B0004C10B3A00BF0CCFE0898401C28B900E039
:10D6C000E9E0B4A00BF0C4FE78E7089818B9B1A05F
:10D6D0000BF0BEFE72E7BA208DF8500000208DF8E6
:10D6E00051000898C0B28DF852000898000A8DF8D1
:10D6F00053000898000C8DF854000898000E8DF81F
:10D7000055000998C0B28DF856000998000A8DF8A6
:10D7100057000998000C8DF858000998000E8DF8F4
:10D720005900BDF82800C0B28DF85A00BDF8280095
:10D73000000A8DF85B00BDF82A00C0B28DF85C00CD
:10D74000BDF82A00000A8DF85D00BDF82C00C0B2BB
:10D750008DF85E00BDF82C00000A8DF85F00BDF862
:10D760002E00C0B28DF86000BDF82E00000A8DF8C2
:10D770006100BDF83000C0B28DF86200BDF8300025
:10D78000000A8DF86300142114A810F0BBFEBB2022
:10D790008DF8500000208DF85100BDF83200C0B265
:10D7A0008DF85200BDF83200000A8DF85300BDF824
:10D7B0003400C0B28DF85400BDF83400000A8DF872
:10D7C0005500BDF83600C0B28DF85600BDF83600E1
:10D7D000000A8DF85700BDF83800C0B28DF8580027
:10D7E000BDF83800000A8DF85900BDF83A00C0B203
:10D7F0008DF85A00BDF83A00000A8DF85B00BDF8BC
:10D800003C00C0B28DF85C00BDF83C00000A8DF809
:10D810005D00BDF83E00C0B28DF85E00BDF83E0070
:10D82000000A8DF85F001098C0B28DF86000109863
:10D83000000A8DF86100BDF84400C0B28DF86200A6
:10D84000BDF84400000A8DF86300142114A810F0FC
:10D8500059FEBC208DF8500000208DF85100129820
:10D86000C0B28DF852001298000A8DF85300129839
:10D87000000C8DF854001298000E8DF855009DF89C
:10D880004C008DF8560000208DF85700082114A890
:10D8900010F038FE17E00E480078012804D1424805
:10D8A0000068401C4049086009480078012805D1FB
:10D8B00000203E490870054948707FE63B480078E3
:10D8C000401C3A49087000BF78E60000142300208D
:10D8D000FC220020582100205A210020EC220020A8
:10D8E000F4220020F02200200D0A206F6C64657283
:10D8F000737441646472202564206C6173744164A4
:10D9000064722025640000000D0A20706173746643
:10D910006561747572655F726571756573745F6654
:10D920006972737474696D65202564000D0A206640
:10D93000656174757265203A2074696D652025648F
:10D940000000000098FB03000D0A206665617475F5
:10D950007265203A20737465703A256420726F7086
:10D96000655F636E743A256420735F7377696E67D1
:10D970003A2564206C5F7377696E673A256400000E
:10D980000D0A2066656174757265203A2068623AF6
:10D99000256400000D0A66656174757265206E6FFE
:10D9A00074207361766564000823002082210020C2
:10D9B0002DE9F04104460D4616461F4628480078DA
:10D9C00008B9BDE8F08126484078002830D12448C5
:10D9D000807801282CD12348007800F0010098B904
:10D9E000102021490870002048708C70200AC870EF
:10D9F0000D71280A48718E71300AC8711B48007871
:10DA000008720020487229E017498C72200AC872F7
:10DA10000D73280A48738E73300AC8731348007850
:10DA200008740020487412210F4810F06BFD15E0B7
:10DA30000B48807820B10E480068401C0C490860F3
:10DA40000748807828B100200A49087004494870C6
:10DA5000B7E708480078401C0649087000BFB0E7E7
:10DA6000142300204C210020B02700202D2200206C
:10DA700008230020812100202DE9FE4F05460F4696
:10DA8000904699464FF0000A002001900290002431
:10DA90008DF8047001206910034601AA0090134814
:10DAA0001AF0DCFB06462EB1314611A00BF0D0FC7B
:10DAB0004FF0FF3A69104B4601AA0C481AF0B6FB2A
:10DAC00006462EB1314614A00BF0C2FC4FF0FF3ACF
:10DAD000002405E001A8005D08F80400601CC4B241
:10DAE0004C45F7DB4FFA8AF0BDE8FE8F7CDA030085
:10DAF0000A0D424D4132353520545749207772691D
:10DB00007465206572726F72286572726F7220631D
:10DB10006F646520256429000A0D424D4132353578
:10DB2000205457492072656164206572726F7228B3
:10DB30006572726F7220636F64652025642900002E
:10DB40002DE9FE4F06460F4690461D464FF0000A4F
:10DB5000D14600248DF8047000BF05E018F80410C9
:10DB600001AA601C1154C4B2AC42F7DB0120711051
:10DB70006B1C01AA009008481AF070FB8146B9F1AD
:10DB8000000F05D0494605A00BF062FC4FF0FF3AAC
:10DB90004FFA8AF0BDE8FE8F7CDA03000A0D424D91
:10DBA00041323535205457492077726974652065B4
:10DBB00072726F72286572726F7220636F64652073
:10DBC0002564290010B50446204619F0A5FE10BDB5
:10DBD000014601F00F000A0902EB820200EB42004D
:10DBE000C0B2704701460A2091FBF0F200FB121010
:10DBF0000A2291FBF2F200EB0210C0B2704700F56E
:10DC0000405090F8111601291AD190F850160029A9
:10DC100016D1B0F84C16B0F8122611440AB2A0F88A
:10DC20004C26B0F84E16491C09B2A0F84E160A2927
:10DC300006D192FBF1F1A0F84C16012180F85016A4
:10DC4000704700002DE9FC5F42F6081500F54054CE
:10DC50000646455FB4F97A28D0F8B0004FF0FF3996
:10DC600042430020B4F9E6346AE000BF06EB40010D
:10DC700001F54051B1F99E144F1BFF1C062F5DD9D1
:10DC800005EBD57CA1EB6C07002F01D5C1EB6C0730
:10DC9000042F53DB6F424FF0030C0CEB47070F448C
:10DCA000062F4BD9B6F9A870B9420CDDB6F9AAC057
:10DCB000614508DA06EB400101F54051B4F870788F
:10DCC000B1F89E1424E001EBD17CB7EB6C0F35DA90
:10DCD000B6F9AA70B7EB6C0F30DDD4F82C7697420A
:10DCE0001FDD06EB400707F54057B7F99E74AF42BA
:10DCF0000CDD8C2D0ADD05EB4501B4F870784FEA98
:10DD0000E17C01EB9C7107EBA10102E0B4F87078B3
:10DD10003944A4F87018B4F87218491CA4F87218A1
:10DD200010E006EB400101F54051B4F87078B1F90C
:10DD30009E1401EBD17107EB6101EAE7401C00B2D0
:10DD4000834293DC83427AD1D4F82C0690420EDDD4
:10DD5000B6F9AA00A84201DD680005B2A5F13200BB
:10DD60000FFA80FB3C3000B28046002054E0B6F948
:10DD7000A8B0B6F9AA00F7E74FF0FF3081465F463A
:10DD8000009041E0781BC01D0E283BD905EBD571F2
:10DD9000A7EB6100002801D5C7EB6100082831DB43
:10DDA000684207EB4000C01D0E282BD90AEB4A0140
:10DDB000C1EB8A1006EB401303F500500190D0F838
:10DDC000502141F6C810C05E52F8200000EB40011F
:10DDD00052F82700CA1701EB5271B0EBE10F11DDC9
:10DDE00041F6D0101844394606F021F9012809D12E
:10DDF00001980099D0F8500150F82700884201DDC1
:10DE0000B94600907F1C3FB24745BBDBB9F1000F1C
:10DE10000ADA0AF1010000B28246B6F9BC005045A8
:10DE2000AADCB9F1000F0ADBB4F8701801EB0900A5
:10DE3000A4F87008B4F87208401CA4F87208BDE891
:10DE4000FC9F00002DE9F04F00F5405100228A466A
:10DE5000A1F8E225D1F88413032974DB114600EB05
:10DE6000410202F54052A2F8E415002291E002EBD3
:10DE70004201C1EB821100EB4119002309F58055E5
:10DE800080E000BF00EB820101F55051D1F8A812EB
:10DE9000B1F1814F74DA02EB42010144194401F5FA
:10DEA000405191F8B815A1BB09EB430141F6C816E2
:10DEB0008E5F42F25011D0ED0F0A51F8091051F85F
:10DEC000264000EE104AB5F9C849B8EEC00A51F82C
:10DED000241060EE200A00EE101AB8EEC00AF4EE2C
:10DEE000C00AF1EE10FA4BDDBAF9E2450CB100219F
:10DEF00044E000EB440101F540510124A1F8BE6566
:10DF0000BAF9E21500EB410101F54051A1F8E445F1
:10DF10002CE035E000EB410C0CF5405CBCF9BE8513
:10DF2000B8EB060701D5A6EB0807B0F91680474500
:10DF30000ADA00EB410101F54051B1F8E415491C42
:10DF4000ACF8E4151CE0DEE0671E8F4214D100EB54
:10DF5000440101F54051A1F8BE65BAF9E24501213D
:10DF600000EB440404F54054A4F8E415BAF8E215B3
:10DF7000491CAAF8E21503E0491C09B28C42C9DC2D
:10DF80005B1C1BB2B5F9CE1999423FF77BAF521C0F
:10DF900012B2B0F9BC1091423FF769AF00240023E0
:10DFA000A7E000EB840202EB4302002102F5405996
:10DFB00098E000BF04EB440700EB470203EB430685
:10DFC00032440A4402F5405292F83025EABB00EB95
:10DFD000C70202EB860202EB810505F5405502F50A
:10DFE0004052D5F85C55D2F85C2500EE105AF8EE98
:10DFF000C00A90ED0F0A60EE800A00EE102AB8EE1B
:10E00000C00AF4EEC00AF1EE10FA69DDBAF9E25581
:10E010000DB1002262E000EB870202EB460202EB48
:10E02000410202F54052B2F8186500EB450202F5D4
:10E0300040520125A2F8BE65BAF9E22500EB420282
:10E0400002F54052A2F8E45540E049E000EB870CAD
:10E050000CEB460C00EB42080CEB410C08F5405E63
:10E0600043F2185B3CF90BB0BEF9BE85B8EB0B0C64
:10E0700001D5ABEB080CB0F91680C44509DA00EB0A
:10E08000420202F54052B2F8E425521CAEF8E425F3
:10E0900026E0A5F1010C94451ED100EB870202EBAE
:10E0A000460202EB410202F54052B2F8186500EB5D
:10E0B000450202F54052A2F8BE65BAF9E2550122C6
:10E0C00000EB450505F54055A5F8E425BAF8E2252D
:10E0D000521CAAF8E22503E0521C12B29542B5DCAC
:10E0E000491C09B2B9F93C258A423FF763AF5B1C72
:10E0F0001BB2B0F9BC1099423FF753AF641C24B275
:10E10000022CFFF64CAFBDE8F08F000070B500F5B3
:10E110004054002684F85C66054684F8826694F8CC
:10E120001106012802D1284606F088FDD5F8B01066
:10E13000D4F87C0301EB4101884214DB94F881069A
:10E14000012810D0284602F091FD284600F006FD77
:10E1500094F8810858B184F8816800BF95F893005D
:10E16000012808D010E0284601F05EF8F0E72846C4
:10E1700009F09CFAF2E794F8990828B994F8AD08E8
:10E1800010B9284605F068FF95F89500012802D1DE
:10E19000284605F03FFE284603F055F8284603F0D0
:10E1A000A5F8B4F91206B4F9141688420BD1B4F8E4
:10E1B0008406401C00B2A4F884060A2805DB0A2065
:10E1C000A4F8840601E0A4F88466D4F87C0348B976
:10E1D000B4F9E604002805DDB4F99E04BE2801DA8E
:10E1E000A4F8120695F8CC00012802D1284606F0C2
:10E1F000C7FF95F8D30001280ED0B4F9120600EE3F
:10E20000100A05F56050B8EEC00A80ED2C0A2846C9
:10E21000BDE8704001F0E4BB284609F075FCF6E764
:10E2200070B500F54054054694F85206012858D1BF
:10E23000D4F88806002854D143F66C004059B0F158
:10E240007D5F4EDAB4F9E804032803DBB4F9E40592
:10E25000042808DA28460AF0DDFF012841D1B4F984
:10E26000E40503283DDBB5F99000B4F99E140A30AB
:10E27000814236DD00EE101AB4F91406B6EE081A23
:10E28000F8EEC00A00EE100AB8EEC00A20EE010A4D
:10E29000F4EEC00AF1EE10FA23DD00EE101AB7EE2C
:10E2A000081AF8EEC00A00EE100AB8EEC00A20EE16
:10E2B000010AF4EEC00AF1EE10FA12D2B4F9BE056A
:10E2C000081AC01C06280CD8284602F093FD012825
:10E2D00007D194F8CE04002803D1B4F89E04A4F822
:10E2E000120670BD2DE9F04100F54054054694F842
:10E2F000510601281AD000287CD194F85104012835
:10E3000078D194EDDF0AB1EE081AF8EEC00A95ED67
:10E310002C0AB8EEC00A20EE010AB7EE081A20EE69
:10E32000010AF4EEC00AF1EE10FA63D2002631E0E1
:10E3300006EB4600C0EB861005EB401742F250108A
:10E34000B4F91226C1590023284601F067FD41F6B1
:10E35000CE110020C95F0DE007EB400202F58052AC
:10E36000B4F91236B2F9C8299A1A521C022A03D9F2
:10E37000401C00B28142EFDC10EE102AB2F1804F57
:10E380000CDC814204DD10EE100A2949884205DCCC
:10E39000761C36B2B5F9BC00B042C9DCB5F9BC0098
:10E3A000B04227D1A5F6481505F58045B4F81216F8
:10E3B000B4F9140695EC020A091A09B2062930EEDE
:10E3C000600AF1EE000A17DDB5EEC00AF1EE10FAB0
:10E3D00010D210EE101A11F17E5F21D900EE100A52
:10E3E000B8EEC00A30EE600ABDEEC00A10EE100AA8
:10E3F000A4F81206BDE8F08111F1060FFADAB5EEC5
:10E40000C00AF1EE10FAF5DD10EE101AB1F1814FED
:10E4100006DD00EE100AB8EEC00A30EE200AE3E78F
:10E4200000EE900AF8EEE00A30EE800ADCE7000029
:10E43000CDCCCC3F2DE9F05F00F540552DED028BA2
:10E44000044695F8500637264FF0000C4FF0550A59
:10E45000012820D1B5F94C06B4F9522081180FFAE1
:10E4600081FAB4F95010431A1EB2B4F94E309842F2
:10E4700005DAB4F84C00401A0FFA80FA05E0B4F956
:10E480004C10884201DB881A06B2B4F99000C01C17
:10E49000B04200DD06B295F851240021B6EE000A24
:10E4A00042B395F8511604F5605901297ED0002930
:10E4B0007DD195F8520640B1D4F8B010D5F87C0360
:10E4C00001EB4101B0EB810F71DA012A6FD1B4F891
:10E4D000BC0001286CD0D9ED170A99ED181A70EE1E
:10E4E000810A20EE808A00BFB5F9E60400285EDDCF
:10E4F000002771E2B5F9E634002B58DD002012E068
:10E5000004EB400202F54052B2F9E874032F08DB35
:10E51000B2F99E24B24204DD524502DA844601215A
:10E5200003E0401C00B28342EADCB5F94C06B4F9C2
:10E530004C20904233DA41B300210B46B4F9BC9031
:10E540002BE003EB4300C0EB831004EB401641F6D5
:10E55000CE100022805F1BE006EB420741F6C81890
:10E5600037F9088004EB4C0743F29E4A37F90AA0BA
:10E5700008EBD878AAEB6807002F01D5CAEB68072B
:10E58000B4F91080474501DA012108E0521C12B2AB
:10E590009042E1DC19B95B1C1BB29945D1DC94F8BF
:10E5A000CA00012801D0B7EE000A02E044E03FE0D3
:10E5B000B5E100293CD0B5F9143604EB4C0101F566
:10E5C000405103EB4300B1F99E14C21700EB927067
:10E5D000B1EBA00F2CDD04F50054D4F8500150F835
:10E5E000212050F8233000EE902AF8EEE00A20EEC9
:10E5F000801A00EE903AF8EEE00AB4EEE01AF1EE7E
:10E6000010FA15DD00EE902A01EBD1725210F8EEEF
:10E61000E00A00EB820060EE800A90ED000AB8EE9E
:10E62000C00AF4EEC00AF1EE10FA01DDA5F81216E8
:10E63000BDEC028BBDE8F09F012AF9D1B5F9E604E3
:10E640000028F5DDB5F94C06B4F94C104FF0000781
:10E6500088425FDB2EE100BF04EB470000F5405B22
:10E66000BBF9E80403280DDA20460AF0D3FD01289F
:10E670004ED199ED170AD4ED0D0AB4EEE00AF1EE91
:10E6800010FA45DDBBF99E04B04236DD504534DA60
:10E69000002029E008EB4800C0EB881004EB401094
:10E6A00000F50050BBF99E24D0F8501100232046FD
:10E6B00001F0B4FB10EE100AE849884211DDB5F90B
:10E6C0001E06282807DAD5F88413D5F88806081A14
:10E6D0000A280EDC05E0E01900F5405090F8CE0461
:10E6E00038B108F1010000B2B4F9BC1080464145D0
:10E6F000D0DCB4F9BC10414511D1BBF8E8040428C2
:10E7000006D1BBF99E04711F884201DD504506DB2E
:10E710007F1C3FB2B5F9E604B8429DDC13E004EB80
:10E72000470000F54050B4F99010B0F99E048842BB
:10E7300009DDB5F9141601EB4101CA1701EB92711D
:10E74000B0EBA10F7EDCB5F9E8A40026BAF1020F08
:10E7500031D10021B4F9BC702BE001EB4102C2EBD6
:10E76000811241F6CE1304EB4212002033F902C0AD
:10E770001BE000BF02EB400341F6C81833F90880E4
:10E78000B5F99E9408EBD878C9EB6803002B01D546
:10E79000A9EB6803B4F910801BB208F10208984590
:10E7A00001DD761C36B2401C00B28445E2DC491C17
:10E7B00009B28F42D1DCD5F88816D5F884031E3112
:10E7C00088427FF735AFBAF1030FBFF631AFB5F925
:10E7D0001E160529F9DA002E7FF42AAFD5F88C161B
:10E7E0000A318842EDDDB5F94C16B5F9120601F192
:10E7F0000A029042E5DDB4F94C209042E5DA421A73
:10E8000000D50A1A17B20022B4F9BC9026E002EB38
:10E810004203C3EB821304EB4316002006F580533A
:10E8200016E000BF06EB400C41F6C8183CF9088022
:10E83000B8EB010C01D5A1EB080C0FFA8CFCBC4520
:10E8400004DA00E068E06746A5F81286401C00B2D2
:10E85000B3F9CEC98445E5DC521C12B29145D6DC31
:10E86000E6E600BF04EB470000F54058B8F9E804BD
:10E8700003280DDA20460AF0CDFC012818D199EDC5
:10E88000170AD4ED0D0AB4EEE00AF1EE10FA0FDD2E
:10E89000B8F99E04B0420BDD504509DAB5F91E16F1
:10E8A00028290CDBE11901F5405191F8CE1431B162
:10E8B0007F1C3FB2B5F9E604B842D3DCB8E604EBFE
:10E8C000470101F54051B4F99020B1F99E149142ED
:10E8D000C6DDB5F91436414213EB410102D5C3EB55
:10E8E000400200E00A46B4F91040A41CA24201DA3A
:10E8F000400011E095F88028012A0DD195F82926CD
:10E90000012A09D1002901DAC3EB40011A1A00D506
:10E91000C21A9142ECDB8BE6A5F8120688E699ED67
:10E92000178AE1E504EB470000F54058B8F9E80420
:10E93000032804DA20460AF06DFC01284AD194ED40
:10E940000D0AB4EEC80AF1EE10FA43D2B8F99E04EB
:10E95000B0423FDD50453DDAE11901F5405191F8F3
:10E96000CE14B1BBB5F93026C2EB4001002901D568
:10E97000A2EB4001B4F9162091422BDD04EB4701D4
:10E9800001F54051B4F99020B1F99E14914295DD02
:10E99000B5F94C16B4F94C2091424FDAB5F912167C
:10E9A00001EBD172C0EB6201002901D5A0EB62013D
:10E9B000B4F910B00BF102029142ACDDD5F8881623
:10E9C00000270029A8D000224FF0030AB4F9BC9018
:10E9D0002FE0FFE77F1C3FB2B5F9E604B842A1DCA7
:10E9E00026E602EB4203C3EB821341F6CE1604EB9C
:10E9F000431C002136F90C6015E000BF0CEB41030D
:10EA000003F58053B3F9C83993FBFAF893FBFAF393
:10EA1000B0EB080801D51B1A00E0C31A5B4500DA09
:10EA20000127491C09B28E42E8DC012FD8D0521CC4
:10EA300012B29145D5DC002FC4D0F9E5B5F9142602
:10EA400002EBD273C0EB6301002901D5A0EB630197
:10EA50000429BFF64EAFA5F81226E9E500002040D4
:10EA600070B500F5405100F5005491F8AD28C2B1E1
:10EA700091F82936012B2FD091F88038012B2BD01B
:10EA8000B1F81E3643B3012A29D1B1F91426B1F9E0
:10EA90003036D31A0933122B22D800BFB1F93026F1
:10EAA00026E0B1F91E26032A19DBB1F93026782AAF
:10EAB00015DAB1F914369D1A01220935122D02D842
:10EAC00081F8AD28EAE7B4F908595B1B0933122B2A
:10EAD00005D881F8AD2809E0002081F8AD0870BDA7
:10EAE000B4F90839D31A0933122B01D8B4F908291B
:10EAF000B1F91236D4F85051B0F8BC0055F8236083
:10EB000055F82250022807D1D4F8F00850F82340D5
:10EB100050F8220026440544AE420EDDB1F930061D
:10EB200000EB400000EBD074C3EB6400002801D57B
:10EB3000A3EB6400062800DD1A46B1F914061C1A7E
:10EB4000E41C062C01D9104404E0B1F98406052820
:10EB5000C5DB98184010A1F8120670BD2DE9F04FE2
:10EB600004462DED028B85B0002544E005EB4507FA
:10EB7000391943F2B8500B1805EB4500C0EB85106E
:10EB800004EB401641F6C8103218801D815F204604
:10EB900008F064FB04EB470A04EB850943F2AC512F
:10EBA00004EB870743F2945009F540580AEB010340
:10EBB0003A18B8F98C15204608F050FB43F2AF51D3
:10EBC00043F29A500AEB01033A18B8F98E15204621
:10EBD00008F044FB06F5005643F29452BA5E002357
:10EBE0002046D6F8501101F019F909F560506D1C56
:10EBF00080ED190A2DB2B4F9BC00A842B6DC20465B
:10EC0000FFF720F9204606F089FA04F5405595F8FB
:10EC1000110601287DD195F8500660B9B5F94C066A
:10EC2000002808DDB5F94E1690FBF1F0A5F84C066A
:10EC3000012085F85006B5F9E61400260DF1080B01
:10EC400000291CDD43F2CE40231843F29E402218D7
:10EC50001F461646204608F001FBB4F91C10CDE90A
:10EC6000001BB5F9E6143B463246204609F0B8FCD5
:10EC70000646012804D095F8290601287AD0E3E059
:10EC800095F82806012814D0B5F91436BDF90810F6
:10EC9000C81A00D5581A0FFA80F9B4F91C0000EB15
:10ECA000D0700390B9EB600F0CDD0021B4F9BCC04B
:10ECB0005CE0B5F91406BDF90820C11E914201DDE2
:10ECC0005A287DDBC0E001EB4102C2EB811204EB6C
:10ECD000421A00200AF5805742E000BF01EB4102D2
:10ECE0002244024402F5405292F8B825B2BB0AEB26
:10ECF000400202F58052B2F9C8290092D21A01D519
:10ED0000009A9A1A0FFA82FECE4527DA42F2501282
:10ED100000E084E252F80A20DDF80080019252F807
:10ED20002820BDF9088000EE102A019AF8EEC00AEA
:10ED300052F8282000EE102AB8EEC00A9FEDFE1A05
:10ED400020EE010AF4EEC00AF1EE10FA06DD039A95
:10ED5000BEEB620F02DA009AADF80820401C00B248
:10ED6000B7F9CE298242B9DC491C09B28C45AADC2C
:10ED70006AE0FFE700273846B4F9BC1011E000BF95
:10ED800004EB800202F5605294ED0D0AD2ED170AF1
:10ED9000F4EEC00AF1EE10FA01DD012703E0401C99
:10EDA00000B28142ECDCB5F9E804032804DA20461D
:10EDB0000AF030FA012847D1F7B3B5F99E0400E014
:10EDC00041E0B5F9441688423EDD95F8CE1499BB72
:10EDD000ADF80800B5F91426811A00D5111AC2EB56
:10EDE000400309B2002B01D5A2EB40031BB29942AC
:10EDF00003DD4100ADF80810194600EB4007BB1ACF
:10EE000002D5A0EB800313441BB2994202DDADF89A
:10EE10000870194600EBD073C2EB6300002801D5DF
:10EE2000A2EB630000B2814202DD5810ADF8080089
:10EE3000BDF90810881A00E006E000D5501AB4F9B0
:10EE40001C10884200DD002694F8D200012802D070
:10EE5000012E21D01AE0012E18D1B5F93006BDF9E6
:10EE60000810A0EB80020A44121D082A0BD900EBFF
:10EE7000400000EBD072A1EB6200002801D5C1EB8D
:10EE80006200052808DA912906DD002642F20F7893
:10EE90000027B1EE088AA8E0BDF80800A5F8120620
:10EEA00035E100BF04EB870000F56050D4ED0D0A9A
:10EEB00090ED170AB4F91C10CDE9001B07EB4700D1
:10EEC00000EB0401B4EEE00A43F2B85001EB00039A
:10EED000F1EE10FA07EB4700C0EB871004EB40108F
:10EEE0001EDD41F6C8114218891D415E204609F019
:10EEF00077FB012877D1B5F91426BDF90810881AD7
:10EF000000D5501A00B2404503DA8046A5F8121623
:10EF100001E0012E67D1204602F014F8064662E0B7
:10EF200041F6C8114218891D8146415E204609F00C
:10EF300057FB8246BDF80800A0F11E011E3002B248
:10EF4000B4F9900009B20A38884200DD01B2B4F980
:10EF500022000A30904200DA02B242F2501050F819
:10EF6000090001F0A8FCBAF1010F3CD110EE100A23
:10EF7000724988420EDDD5EDDF0AB8EEE01AD4ED15
:10EF80002C0AF8EEE00A60EE880AB4EEE01AF1EE20
:10EF900010FA13DC10EE100AB0F17D5F23DD95ED61
:10EFA000DF0AF8EEC00A94ED2C0AB8EEC00A20EE93
:10EFB000080AF4EEC00AF1EE10FA14D2BDF90810F6
:10EFC000204601F017FF01280DD1B5F91416BDF93F
:10EFD0000820501A00D5881A00B2404503DA80464E
:10EFE000A5F8122601267F1C3FB2B4F9BC00B84236
:10EFF0003FF758AFCEBB02A9204603F06DFA064694
:10F00000012832D195EDDF0AF8EEC00A94ED2C0A02
:10F01000B8EEC00A20EE080AF4EEC00AF1EE10FACB
:10F0200024D20027DFF8188116E000BF07EB470065
:10F03000C0EB871004EB401000F500500023D0F81F
:10F040005011BDF90820204600F0E8FE10EE100A2D
:10F05000404505DC7F1C3FB2B4F9BC00B842E5DC9A
:10F06000B4F9BC00B84201D1002650E0BDF8080058
:10F07000A5F81206204608F05BFAB5F94426B5F962
:10F080001206A2EB8201411802D502EB4201091AD5
:10F09000B4F9162091423ADBB5F91476C11B00D5BC
:10F0A000391A0AB20021B4F9BC802EE001EB410309
:10F0B000C3EB811304EB4319002009F580531EE0D4
:10F0C00001EB410CA44484440CF5405C9CF8B8C5A9
:10F0D000BCF1000F11D109EB400C41F6C81A3CF904
:10F0E0000AA0BAEB070C01D5A7EB0A0C0FFA8CFCAF
:10F0F000944502DA6246A5F812A6401C00B2B3F9A4
:10F10000CEC98445DCDC491C09B28845CEDC3146D9
:10F11000204602F07BFA204602F05AFD46B995F8E7
:10F12000AD0810B9204601F0EFFD204601F0FEFBCE
:10F1300094F89200012805E06666663F6666263F01
:10F140000000204002D1204605F07CF9204602F064
:10F1500021F836B9B5F91216204601F04BFE85F8B4
:10F16000A40694F89700012816D195F8AD0898B92F
:10F17000204605F04FFBD5F88C16D5F88403401ACD
:10F18000082809DAB5F91216B5F91406091A0A2978
:10F1900002DD401CA5F8120694F89A00012803D15C
:10F1A00016B9204603F08CF895F85006012806D1D0
:10F1B00095F8A40618B916B92046FFF73BF9204682
:10F1C00005F0C1FD94F89400012805D195F8AD082B
:10F1D00010B9204601F0DAFB204608F0F3FD204686
:10F1E00008F064FD94F89600012802D1204609F049
:10F1F0009DFA204602F0BEFC2046FFF773F8204639
:10F20000FFF70EF894F8C800012802D12046FFF756
:10F2100027FC204609F0ECFE2046FEF76AF905B00F
:10F22000BDEC028BBDE8F08F2DE9F04F05462DEDCA
:10F23000028B97B0FEF706FE002001460AE000BFF1
:10F2400000EB40022A4402F55652401C118782F816
:10F250003A1000B2B5F9BC208242F1DC05F5405409
:10F2600005F5005994F8812605F56058012A18D053
:10F27000B4F9E60405F5805700287DDD0AAA0CA93B
:10F280000BA88DE80700B5F91020B9F90819B4F9F1
:10F290009E040DAB01F023FB94F81116B1B3B0B38B
:10F2A00050E095F87600012806D1B4F970080028DE
:10F2B00002DDB4F8582632B1B4F85406A4F81206A8
:10F2C00084F881169EE0B4F9722890FBF2F000B247
:10F2D000A4F81206A4F83406D4F88423C4F8382617
:10F2E000B4F97A28D5F8B0305A43D4F82C369A427B
:10F2F00008DBB4F91E260A2AE2DBB9F908291E3A0E
:10F300008242DDDD012084F82806D9E70EE0FFE720
:10F31000B4F914068100052091FBF0F0B4F99E14B5
:10F32000884203DBB4F9840605280BDBB4F99E148C
:10F33000A4F8121695F8CB00012863D1284609F0ED
:10F3400003FB29E000264FF0804B2AE005EB460046
:10F3500041F6C812B4F91416825E881A001D0828F6
:10F360001DD801232846D9F8501100F057FD10EEA2
:10F37000100A584513DD00E018E098ED170AD5EDA6
:10F380000D0AB4EEE00AF1EE10FA08DD05EB4600D6
:10F3900000F58050B0F8C809A4F8120632E0761CD7
:10F3A00036B2B7F9CE09B042D0DC2BE0B5F8BC00DC
:10F3B000012827D100264FF0804B1FE005EB4600C7
:10F3C00041F6C812B4F91416825E881A001D082886
:10F3D00012D801232846D9F8501100F01FFD10EE75
:10F3E000100A584508DD98ED170AD5ED0D0AB4EE60
:10F3F000E00AF1EE10FAC9DC761C36B2B7F9CE0994
:10F40000B042DBDCB4F91226B5F9900082425EDA34
:10F41000B4F81A06401CA4F81A0694F8110601283C
:10F4200004D094F8800601283DD0CCE2B4F914163B
:10F43000881A00D5501AB5F9149000B28145F4DA53
:10F4400000263246B4F9E6C426E000BF05EB4208C8
:10F4500008F54058B8F99E74CB1B00D57B1A1BB237
:10F46000834205DA1846A4F81276814500DD0126AC
:10F47000B8F99E747B4211EB430301D5C1EB4703FE
:10F480001BB2834206DA18467B00A4F81236814587
:10F4900000DD0126521C12B29445D7DC002EC4D1E7
:10F4A000A4F812168FE2B4F9E80403280CDA28460F
:10F4B00009F0B0FE012807D0B4F85406A4F81206EB
:10F4C000284610F0D1FB7EE2B4F89E04F6E794F8EB
:10F4D000110601287CD100201290B4F91406811A7B
:10F4E00000D5111A0EB2B4F9C41802290DDAB5F913
:10F4F0001410B14209DA824202DAA0F1010002E0FE
:10F5000003DD00F10100A4F81206B5F91400B042C1
:10F510007EDA4FF0000B5F46BDE000BF05EB470011
:10F52000B4F9141600F540501390B0F99E24881ACF
:10F5300000D5501A00B2B04208DA0646A4F81226E6
:10F54000B5F91C00B04201DD4FF0010B1398B0F982
:10F550009E0400EBD072A1EB6200002801D5C1EB44
:10F56000620000B2B04209DA06465010A4F8120652
:10F57000B5F91400B04201DD4FF0010B1398B0F95A
:10F58000E804032804DA284609F044FE012870D173
:10F59000D4F88C16D4F88403401A0A2879DD13981D
:10F5A000B4F914160291B0F99EE4CEF1000011EB0B
:10F5B000400001D5C1EB4E0000B20090B04268DAC5
:10F5C00000220646B5F9BC3011461046019314E0FE
:10F5D0004EE100BF00EB4003C3EB801305EB431388
:10F5E00003F50053401CD3F8503100B253F82EC03D
:10F5F00053F83E3062441944019B8342EADC01EB3C
:10F600008100B0EB820F0ADA029800EBD07000E0C4
:10F61000D0E04FF00A0C0CEB600086450ADC4EBBD4
:10F62000C1EBC100B0EB820F25DAB5F99010491D8E
:10F630008E4520DD0AAA0CA90BA88DE80700B5F9B4
:10F640001020B9F9081970460DAB01F048F9D0B98E
:10F65000B4F914068100052091FBF0F11398B0F97C
:10F660009E0481420FDAA4F81206002601201290AF
:10F6700009E00EE0FFE7029800EB4E0000EBD070CF
:10F680004010A4F81206B5F91400B04201DD4FF0A5
:10F69000010B7F1C3FB2B4F9E604B8423FF73EAF1E
:10F6A000BBF1000F37D142F20F7600272CE00EA9F4
:10F6B000B5F91400CDE9000107EB4700284443F2F7
:10F6C000B851431807EB4700C0EB871005EB40101B
:10F6D00041F6C8114218891D415E284608F080FF96
:10F6E000824601280ED1B4F91426BDF93810881AC3
:10F6F00000D5501A00B2B04204DA0646A4F8121639
:10F700004FF0010B7F1C3FB2B5F9BC00B842CEDC14
:10F71000BBF1000F0BD0B4F91406B5F938108842CC
:10F7200003DCB4F94C16884263DD0F2E61DD1298BC
:10F7300058B9B4F94006062803DB284600F023FC3C
:10F7400003E0B4F81406A4F81206BBF1000F50D180
:10F75000B4F9E804032804DA284609F05BFD01281F
:10F7600020D14FF0000A5046B5F9BC2018E000BF88
:10F7700000EB4001C1EB801105EB411141F6C816C9
:10F78000B4F99E348E5F991B00D5F11AB5F910308B
:10F79000994203DC0AF1010101F0FF0A401C00B2AA
:10F7A0008242E5DCB5F9BC00504522D1022802D0E6
:10F7B000012811D01DE0D8ED170A95ED0D0AF4EEE1
:10F7C000C00AF1EE10FA14DDD8ED180AF4EEC00A02
:10F7D000F1EE10FA09DC0CE098ED170AD5ED0D0AF0
:10F7E000B4EEE00AF1EE10FA03DDB4F89E04A4F8DA
:10F7F00012069FED798A002614E000BF06EB460052
:10F80000C0EB861005EB401000F50050B4F912264D
:10F81000D0F850110023284600F000FB30EE088A93
:10F82000761C36B2B5F9BC00B042E7DC94F850065D
:10F8300001281AD1B5F9BC0000EE100AF8EEC00A92
:10F8400088EE200A10EE100AB0F1804F0DDA28463B
:10F85000FEF7F0FD95F8CB00012806D1B4F9121699
:10F86000284609F071F8A4F81206284605F06BFA4C
:10F8700095F87600012803D1B4F9700800282DDC32
:10F88000B4F9E80402282DDB94F8110630BBB4F873
:10F890005806012822D100261CE00AAA0CA90BA8B0
:10F8A0008DE8070005EB460043F25461415EB5F96F
:10F8B0001020B4F912060DAB01F011F8012807D1A0
:10F8C000B4F91216BDF92800814201DDA4F8120630
:10F8D000761C36B2B4F92606B042DEDC284610F0BB
:10F8E000C3F90DE095F89E00012809D194F811069E
:10F8F00030B9B4F91206002802DD012084F811069F
:10F900002846FEF77CF92846FDF7F3FDB4F91236D8
:10F91000B4F91406834256D1B4F98406052852DBA3
:10F92000B4F99A05B4F9942500EBD071A2EB61000B
:10F93000002801D5C2EB6100032844DAB4F9A6051A
:10F94000B4F9A01500EBD076A1EB6600002801D534
:10F95000C1EB6600032803DA501A801C042803D97F
:10F96000B5F8BC0001282ED1D01A133026282AD889
:10F97000B5F8BC00012812D101232846D9F850114E
:10F9800000F04CFA10EE100A1449884203DD00BF63
:10F99000B4F894050BE0B5F8BC0001280AD0B4F91E
:10F9A0009405B4F9A015084400EBD0704010A4F8F9
:10F9B000120608E098ED170AD5ED0D0AB4EEE00A3C
:10F9C000F1EE10FAE4DCB4F81206A4F8160617B04B
:10F9D000BDEC028BBDE8F08F00000000000020406D
:10F9E0002DE9F04700252A4600F54054B0F9BC70D7
:10F9F0002DE002EB420303EB000902EB4203C3EBF1
:10FA0000821341F6CE1600EB43130021F65E19E097
:10FA100003EB410C0CF5805CB4F91286BCF9C8C943
:10FA2000A8EB0C0C0CF1030CBCF1060F08D809EB89
:10FA3000010C0CF5405C9CF8B8C5BCF1000F09D076
:10FA4000491C09B28E42E3DC25B9521C12B297421E
:10FA5000CFDCFDB102EB4203C3EB821200EB42129A
:10FA600002F500520123D2F8502102EB8101B4F9D2
:10FA7000122600F0D3F910EE100AB0F1804F0FDD1E
:10FA800094F88208032803D210F1010084F8820858
:10FA9000BDE8F08794F882080028F9D0401EF5E709
:10FAA00010EE100AB0F17F5F01DD0220EEE70120C9
:10FAB000ECE700002DE9F04F00F5405587B04FF01E
:10FAC000000A0446A5F89CA449B3012950464FD02A
:10FAD000E0E001EB4102C2EB811204EB4216002090
:10FAE00006F5805215E000BF06EB400303F5805396
:10FAF000B3F8C879B5F99C3404EB430303F54053DC
:10FB0000A3F86C74B5F89C345B1C401CA5F89C34BD
:10FB100000B2B2F9CE398342E6DC491C09B2B4F92D
:10FB2000BC008842D5DCB9E0002214E001EB4201C0
:10FB300001F58051B1F8C839B5F99C1404EB4101C5
:10FB400001F54051A1F86C34B5F89C14491C401CD7
:10FB5000A5F89C1400B200EB4001C1EB801141F606
:10FB6000CE1304EB41115B5E9342DFDC401C00B21C
:10FB7000B4F9BC108142D7DC002101EB4102002026
:10FB800004EB820904EB810726E000EB400607EB5B
:10FB90004003002209EB460603F5405316E000BF80
:10FBA000B5F99C8406EB420C0CF5405C04EB48086C
:10FBB00008F54058BCF818C5A8F86CC4B5F89CC442
:10FBC000521C0CF1010CA5F89CC412B2B3F93CC54F
:10FBD0009445E5DC401C00B2B4F9BC208242D4DC80
:10FBE000491C09B20229C8DB58E0002115E000BF1A
:10FBF00002EB410202F58052B2F8C839B5F99C24F3
:10FC000004EB420202F54052A2F86C34B5F89C2491
:10FC1000521C401CA5F89C2400B200EB4002C2EB31
:10FC2000801241F6CE1304EB42129B5E8B42DFDC66
:10FC300000EB4002002104EB820904EB800701EB9A
:10FC4000410607EB4103002209EB460603F540534A
:10FC500016E000BF06EB420C0CF5405C521CBCF8F1
:10FC60009485B5F99CC412B204EB4C0C0CF5405CC5
:10FC7000ACF86C84B5F89CC40CF1010CA5F89CC4DC
:10FC8000B3F98CC59445E5DC491C09B20229D6DBE1
:10FC9000401C00B2B4F9BC108142A6DC43F25440CF
:10FCA000D146A5F8E6A418212044FCF7E4FC002680
:10FCB0004FF0010BAAE000BFB5F9E614A01904EB60
:10FCC000410101F5405100F54058A1F8E894B5F91B
:10FCD000E61404EB410101F54051A1F89E9498F817
:10FCE0005404E0BB701C07B289E0E01900F5405AEB
:10FCF0009AF85404A0BB03AA04A906A88DE807003B
:10FD000004EB470043F26C41415E04EB460000F512
:10FD10004050B4F91020B0F96C0405AB00F0DFFDE1
:10FD20000146BDF910004310BDF90C00012993FBF9
:10FD3000F0F200FB123206D0B4F91010831A8B4295
:10FD400001DB91424BDDBDF91410042947DAB4F907
:10FD50009010814202DA95F880264AB101E053E022
:10FD60003DE095F88026012A02D095F85024B2BBD8
:10FD7000B5F9E62404EB420303F54053B3F8E82455
:10FD800072B1B3F99E2482420CDD814208DD42F259
:10FD90005011095951F820C051F822108C4501DD4D
:10FDA000A3F89E0498F8540460B988F854B4B5F9DF
:10FDB000E60404EB400000F54050B0F8E814491C9C
:10FDC000A0F8E8148AF854B4B5F9E60404EB40004E
:10FDD00000F54050B0F8E814491CA0F8E814B5F953
:10FDE0009C04401EB84208D198F85404012804D15C
:10FDF000B5F8E604401CA5F8E6047F1C3FB2B5F94F
:10FE00009C04B8423FF771AF761C36B2B5F99C043A
:10FE1000B0423FF751AF07B0BDE8F08F70B500F5C5
:10FE200040549FED1D0A94F81156012D33D194F8DA
:10FE30005144012C01D0012B2DD1A2F114031DB28C
:10FE400028331CB2B0F990300A3BAB4200DD1DB242
:10FE5000B0F92200A04200DA044600202B4604E05C
:10FE600051F823605B1C30441BB2A342F8DD631BD6
:10FE70005B1C00EE103AB8EEC01A00EE100A51F802
:10FE80002200B8EEC00AC0EE010A00EE100AB8EE79
:10FE9000C01A81EE200A70BD0000000070B50C464B
:10FEA00003460021084604E053F82050401C294432
:10FEB00000B2A042F8DB91FBF4F50020156001468A
:10FEC000024606E053F82260761BC6FB0601521C70
:10FED00012B2A242F6DB2246E317FCF761FBBDE853
:10FEE000704008F054BB2DE9F04700F5405405463A
:10FEF000B0F91AA0B4F92006002688B000283FDD2A
:10FF000006AF0DF114080DF110090097CDE9019825
:10FF1000B4F9441603AB524600F0E1FC90B994F8F2
:10FF20005A0694F8281688422AD1CDE90079CDF8EE
:10FF3000088042F60811695EB4F9200603AB524608
:10FF400000F0CDFC01281BD194F8280694F85A162D
:10FF5000884215D1B4F81E06401C00B2A4F81E0653
:10FF60001E280ADBD4F82C16D4F87C03B0EB410F22
:10FF700006DCD4F88403C4F8880608B0BDE8F0872E
:10FF8000A4F81E66F9E72DE9F04100F54054B0F9F8
:10FF90003850B4F91426AA425FDD0021B0F9BC3014
:10FFA0002DE000EB810606F56056D0ED0D0A96EDCA
:10FFB000170AB4EEE00AF1EE10FA1EDD01EB41067D
:10FFC000C6EB811600EB461606F58056B6F9CE79DB
:10FFD000002F12DDB6F9C869AE420EDD96420CDA8A
:10FFE00001EB4105C5EB811500EB451505F5805585
:10FFF000B5F8C859A4F8125603E0491C09B28B425F
:020000040002F8
:10000000CFDC8B4229D1A4F81226B4F9E6140029DA
:1000100023DDB4F9E814032903DA09F0FBF8012819
:100020001BD1B4F91416B4F99E0401EB4102D317A5
:1000300002EB9372B0EBA20F0FDD0A1A00D5421A41
:1000400000EBD073A1EB6305002D01D5C1EB630577
:10005000AA4200DB5810A4F81206BDE8F0810000A7
:100060002DE9F04F054690F8CA00002693B001280C
:100070001DD0B0EE000A3C200F90284607F015FF77
:1000800005F5405494F8500400287DD1824684F848
:1000900010A694F851044FF00109002850460AD0E8
:1000A00000210A469FEDF91AB5F9BC606CE29FED9C
:1000B000F80A1E20E0E78346B4F9E604012867DB6E
:1000C000B4F8E804022863D1B4F99E04B5F990109D
:1000D00088425DDD00231A46CDF82CA041E000BF28
:1000E00002EB4200C0EB821005EB401042F25011CF
:1000F00041F6CE1C09580991B4F99E743CF9008070
:1001000051F827100B44002127E000BF00EB410C01
:1001100041F6C81E3CF90EE0A7EB0E0C0CF1050CE5
:10012000BCF10A0F17D90EEBDE7EA7EB6E0CBCF10B
:10013000000F01D5C7EB6E0CBCF1060F0BDB00EB1B
:10014000410041F6C811415E099850F821000B9911
:1001500008440B9003E0491C09B28845D6DC521CC8
:1001600012B2B5F9BC009042BADCDDED0B0AF8EE34
:10017000E00A60EE800A00EE103AB8EEC00AF4EE33
:10018000C00AF1EE10FA00E092E301D24FF0010B49
:10019000B4F9E60400280BDDB4F9E80403280EDA0C
:1001A000BBF1000F0BD1284609F034F8012806D026
:1001B000A4F858A6A4F852A4A4F826A675E3B4F9A6
:1001C0009E14B5F990004FF0FF370A9081427CDD14
:1001D000B5F9BC003A4600230690B8E003EB4300B3
:1001E000C0EB83100027B4F9E6B405EB40111FE023
:1001F00005EB470000F54050B0F99E043C2802DAB8
:10020000DDF83CC000E0844642F2501858F8018006
:1002100058F820804FEA882898FBFCFC944505DDBF
:10022000DDF82880404501DD624606467F1C3FB26E
:10023000BB45DDDC41F6CE10002730F901E06CE073
:1002400001EB470000F58050B0F9C8093C2802DAFC
:10025000DDF83CB000E0834642F2501C5CF801C07F
:10026000CDF824C05CF820C0CDF840C04FEA8C28FF
:1002700098FBFBFB4FF0000CCDF844C0B5F938C03B
:10028000CDF838C0B44523DA604521DADDF828C05E
:1002900060451DDD06EBD678C0EB680CBCF1000FA5
:1002A00001D5A0EB680CB5F91080C44510DADDF873
:1002B00024C05CF826C00CEB4C08DDF840C0B8EB5D
:1002C0008C0F05DA4FF0010C00E0E3E0CDF844C0FC
:1002D000934503DDDDF828C0604504DCDDF844C04B
:1002E000BCF1000F17D0DDF838C05A460CEB4C0CAF
:1002F0000CEBDC7CB0EB6C0F0CDD00EBD078A6EBEC
:10030000680CBCF1000F01D5C6EB680CB5F9108084
:10031000C44500DB06467F1C3FB2BE4590DC502E34
:1003200012DD01F5005106EBD677D1F850117810A7
:1003300051F8200051F8261000EB400000EBD0707F
:10034000B1EB600F00DA7E105B1C06981BB298427E
:100350003FF744AF95F8CB00012804D13146284639
:1003600008F0F2FA0646A4F89E64B4F926064F4651
:1003700005EB400000F540500BA9A0F85466A4F826
:100380005896284601F02EFF0B995646491C90FBC3
:10039000F1F0B4F852140844A4F85204B4F8260654
:1003A000401C00B2A4F82606A4F848A6A4F84AA661
:1003B00094F8111641B10021B4F92606B5F91E20B2
:1003C000904226D029BB10E0012109E005EB400254
:1003D00002F54052B4F89E34401CA2F8543600B2E4
:1003E000B5F91E208242F1DCE6E70320009041F6D9
:1003F000C810B6EE000A415F00230222284600F032
:10040000CFFDB5F9BC204FF0FF3101EB420188422E
:1004100034DBB4F95214B4F9260691FBF0F000B2C3
:10042000A4F85204072802DAC0EBC00006E02A3024
:1004300000B2A4F85204642802DD6420A4F8520437
:10044000B4F82406401C00B2A4F8240684F8107600
:10045000B4F95224B5F908108A4203DCB5F920300A
:1004600098420CD18A4207DDB4F99E04B5F92210F6
:10047000884201DD84F8867684F8507415E2A4F889
:100480005866A4F85264A4F826660EE23333333F6C
:100490009A99194004209FEDFE0A0090012305223D
:1004A000284600F07DFDB5F9BC1007EB41018842FC
:1004B00016DAB4F84A06401C01B2A4F84A16A4F8A9
:1004C00026A6A4F824A6A4F848A6A4F858A6B5F928
:1004D0006A008142D2D16FF00900A4F8520435E0DD
:1004E0000BA9284601F07EFE0B99491C90FBF1F008
:1004F000B4F85214084400B2A4F85204072802DAEF
:10050000C0EBC00006E02A3000B2A4F85204642810
:1005100002DD6420A4F85204B4F95204B5F90810BD
:10052000884213DD002009E005EB400101F5405150
:10053000B4F89E24401CA1F8542600B2B5F91E1050
:100540008142F1DCA4F8589684F8809684F850949F
:10055000ABE100BF05EB820303F56053D5ED1F0A45
:1005600093ED170AB4EEE00AF1EE10FA01DD401C3B
:10057000C0B260EE810AB4EEE00AF1EE10FA01DDDD
:10058000491CC9B2521C12B29642E3DC05F5605315
:10059000864204D030B1B4F9E824032A02DD94F88D
:1005A0001126E2B38E4204D079B1B4F9E824032ACB
:1005B0000BDDD3ED1B0A95ED1E0AF4EEC00AF1EE39
:1005C00010FA02D294F8112652B3B5F95A10B5F9BF
:1005D000742095ED1E0A0A44D5F8B0104A4300284D
:1005E0007DD0D3ED1B0AF4EEC00AF1EE10FA76D2FC
:1005F000B4F99E14B5F99030994270DDD4F87C13AB
:1006000091426CDA284601F02BFAB4F9E60400288E
:100610000FDDB4F9E80403283DDA284601E009E0DB
:1006200023E008F0F7FD012835D094F8AC08012844
:1006300031D02CE1B5F95A10B5F974201144D5F830
:10064000B020514300EE101AB8EEC00ADFED910A57
:1006500020EE200ABDEEC00A10EE102A95ED1E0A0B
:10066000DFED8D0A20EE200AB9E7B5F95A00B5F999
:1006700074201044D5F8B020504300EE900AF8EEF4
:10068000E00A9FED861A084660EE810AFDEEE00A58
:1006900010EE902AA3E7B4F99E64B6465F2E32DDD1
:1006A0000021B5F9BC702CE001EB4102C2EB8112D4
:1006B00005EB421B41F6CE12002032F90B301AE056
:1006C0000BEB400241F6C81C32F90CC006EBD678A1
:1006D000ACEB6802002A01D5CCEB680200E0ADE08B
:1006E000B5F910C00CF1010C624502DA94F8AC289F
:1006F0007AB1401C00B28342E2DC834203D1491C40
:1007000009B28F42D0DC322E53DA0022B5F9BCB0E8
:100710004DE00BEB400241F6C816965FEDE702EBA9
:100720004201C1EB821105EB411841F6CE110020C8
:1007300031F9081035E000BF08EB400303F58053A2
:10074000B3F9C83903EBD37CC6EB6C07002F01D596
:10075000A6EB6C07B5F910C00CF1010C67451EDA69
:1007600042F25017B7EE081A57F8087057F82330BE
:1007700000EE103A57F82E3000EE903AB8EEC00A6C
:10078000F8EEE00A60EE810AB4EEE00AF1EE10FA4B
:1007900005DD08EB400341F6C8169E5F03E0401CF0
:1007A00000B28142C8DC814203D1521C12B293458F
:1007B000B5DC0BA9284601F015FD0B99491C90FBEF
:1007C000F1F000B2A4F85204072802DAC0EBC0002E
:1007D00006E02A3000B2A4F85204642802DD642046
:1007E000A4F85204B4F82406401C00B2A4F824066D
:1007F000B4F95214B5F90820914214DD002007E045
:1008000005EB400101F54051401CA1F8546600B2CF
:10081000B5F91E108142F3DCA4F8589684F881964D
:1008200084F8509433E0B5F92010884203D100BF1A
:1008300084F850942BE0A4F852A428E095F87610A0
:10084000012912D0B4F84806401C00B2A4F84806AA
:10085000A4F826A6A4F824A6B5F93A10884216D121
:100860006FF01300A4F85204E2E780B12846FDF7C8
:10087000E9F9B4F97208B4F97418884207DB84F80E
:10088000819684F850942889401CA4F8520407E00B
:100890009A99593F3333B33F9A99993F6666A63F79
:1008A000B4F8AA08401CA4F8AA08284603F04EFA97
:1008B00013B0BDE8F08F08B5521A13B200EB8100F7
:1008C0006A461946FFF7EAFA00EE100AF8EEC00A87
:1008D0009DED000AB8EEC01A80EE810A08BD70B521
:1008E000DDE90554049EF9B1884202DD28802180AB
:1008F00001E029802080B5F90000B4F9001090FBD8
:10090000F1F01880B5F90000B4F9001090FBF1F394
:1009100001FB13003080904204DBB4F90010081A88
:10092000904201DA012070BD002070BD70B5B0F8B2
:10093000BC10012929D100F5405191F88028012AE5
:1009400023D191F82926012A1FD1B1F8E225012AE5
:100950001BD141F6CE1300221D5E14E000EB4203D2
:1009600041F6C8141C5FB1F9BE3504EBD476A3EB95
:100970006604002C01D5C3EB6604032C01DAA1F850
:100980001236521C12B29542E8DC70BD2DE9F04FD0
:1009900000F54051002281F89C269FEDB11A91F894
:1009A0005C264FF0FF39012A7ED1B1F91426B1F946
:1009B0003046121BD21D0E2A76D8642C74DBB1F996
:1009C0001E26052A70DD00F6D802C1F89826A4F18B
:1009D0000A0212B20A3427B213461AE0D1F8904044
:1009E00054F8235000EE105AB1F93056F8EEC00A10
:1009F00054F825409D1A00EE104AD1F898465B1C29
:100A0000B8EEC00A04EB85041BB2C0EE801AC4ED38
:100A1000001ABB42E2DB00256FF0030EE6E000BFE8
:100A200000EB850443F65C038E4E1B59B3427CDD1C
:100A300004F5405400F65413C4F89036134632E0DF
:100A400005EB4506C6EB851600EB461642F2501C38
:100A50005CF806C006F580565CF82380B6F9C869D4
:100A600000EE108A5CF82660F8EEC00A00EE106A0C
:100A7000D4F890C69E1AF8EEC01A0CEB860C5B1CDC
:100A80001BB280EEA10A8CED000AD4F890C6D1F812
:100A900098860CEB860C08EB8606D6ED000A30EE45
:100AA000600A8CED000A00E09DE0BB42C8DBB1F9B2
:100AB00030369B4642E000BFA3EB020CD4F89066B0
:100AC000E24606EB8C080EEB8A0CB444D8ED000A23
:100AD0009CED000AF4EEC00AF1EE10FA0BDB4FF0C9
:100AE000040808EB8A0CB444DCED001AF4EEE10AC9
:100AF000F1EE10FA10DCF4EEC00AF1EE10FA1BDD94
:100B00004FF0040C0CEB8A0C664496ED000AF4EEF0
:100B1000C00AF1EE10FA0FDB10EE906ADFF848C160
:100B2000664509DDF4EEC10A00E050E0F1EE10FA8E
:100B300002DDB0EE601A99465B1E1BB29342BBDC2D
:100B40005B4642E0D4F89066A3EB020CE24606EB6B
:100B50008C08B3460EEB8A0C664498ED000AD6ED7D
:100B6000000AB4EEE00AF1EE10FA0CDB4FF00408D4
:100B700008EB8A0C0BEB0C06D6ED001AB4EEE10A7A
:100B8000F1EE10FA11DCB4EEE00AF1EE10FA1ADD23
:100B90004FF0040808EB8A0C0BEB0C06D6ED000AAC
:100BA000B4EEE00AF1EE10FA0DDB10EE106ADFF899
:100BB000B8C0664507DDB4EEC10AF1EE10FA02DDF9
:100BC000B0EE401A99465B1C1BB2BB42BADBB9F1CE
:100BD000FF3F09D0B1F912264A450CDC012081F80B
:100BE0009C06A1F8129606E06D1C2DB2B0F9BC303F
:100BF000AB423FF715AFB1F91E061E280CDB91F88A
:100C0000290648B991F8280630B9B1F93006B1F98A
:100C10003426401D824206DCB9F1FF3F1ED191F817
:100C20005C0601281AD1B1F88406042816D1B1F95E
:100C30001426B1F93006824210DBD1F83836D1F8EB
:100C400084035C1CA04209DDB1F93446141BA400E6
:100C5000C01A94FBF0F01044A1F81206BDE8F08F22
:100C6000003C1CC69A99593F6666E63EF0B500F511
:100C70004054054694F8460687B0012841D194F8BF
:100C8000110601283DD1B4F9300605F500568C282F
:100C900003DCB6F908098C2801DD042700E00227EF
:100CA00004AA03A906A88DE80700E88A05AB801C02
:100CB00002B2B4F84406400001B2B4F91206FFF7DC
:100CC0000EFE01280ED1B4F91226B4F94416C2EB77
:100CD0004100002801D5A2EB4100B5F916103944B6
:100CE00088420BDBB6F90829B4F91216501A00D560
:100CF000881AB5F916103944884202DA012084F8BE
:100D00005C0607B0F0BD0000F0B500F540514FF0B3
:100D1000000E91F82826012A5DD1B1F91E26032A7A
:100D200059DBB1F93046692C55DA91F85026012A81
:100D300051D1B1F94C36A4F10A0293424BDD0023A4
:100D4000B0F9BC7051E000EB830543F28C560022F1
:100D5000AE5F43E003EB430500EB450C94440CF518
:100D6000405C9CF8ACC5BCF1000F35D100EB8505AB
:100D700005EB420505F540559FED1D1AB5F9945553
:100D800000EE105AF8EEC00A00EE104AB8EEC00AA3
:100D900020EE010AF4EEC00AF1EE10FA1CD2B1F90D
:100DA00014C6ACF1030C654516DD03EB430300EB01
:100DB000830000EB420043F29452825EB1F91406C4
:100DC000401D824202DDA1F8120601E0A1F8125690
:100DD000012081F88108F0BD521C12B29642B9DCA4
:100DE000BEF1000FF7D15B1C1BB29F42ABDCF0BD24
:100DF0009A99993F2DE9F34F00F540590546B9F905
:100E00001E26B0F92210B9F9140682B04FF0000A7C
:100E1000032A19DBB9F9302602EBD2735F1002EB1B
:100E20008202D31702EB937242F38F0600EBD0726B
:100E3000B7EB620F12DA571000EB8000C21700EB1D
:100E4000927040F38F0609E0A0F12802283006B224
:100E5000B5F9900017B2B84200DD0746B14200DA9A
:100E60000E46002063E000BF05EB880000F56050EF
:100E70003349C06D884257DD4FF0FF304FF0000B13
:100E80003C46009037E000BFB9F93006211A00D582
:100E9000011BB5F9162091422BDB00EBD071A4EBBE
:100EA0006100002801D5C4EB6100904221DB08EB12
:100EB0004801C1EB881005EB401000F5005001908F
:100EC000D0F85001214603F0B2F8012811D103985F
:100ED000001B01D50398201AB5F91610884208DDC9
:100EE0000198D0F8500150F82400584501DD8346A0
:100EF0000094641C24B2B442C6DB0098401C11D09C
:100F000008EB4801C1EB881005EB401000F50050DC
:100F1000D0F85011039851F820100BEB4B00B0EBB8
:100F2000810F01DA4FF0010A08F1010000B2B5F9B2
:100F3000BC108046414597DC04B05046BDE8F08FB8
:100F40003333333F30B500F54051D0F8B850B1F9E4
:100F50001236B1F9304600EE103A0122F8EEC00A1E
:100F600000EE104AD1F87C43B8EEC01AAC4280EED5
:100F7000810A12DDD1F82C56AC420EDAD0ED110AFE
:100F8000F4EEC00AF1EE10FA07D2B1F914061B1AFA
:100F9000032B02DDA1F812060022104630BD00002E
:100FA0002DE9FF4F91462DED020B00EE901A2DED2D
:100FB000028B85B0F8EEE00A0998B0EE408A00F5A1
:100FC000005090ED551A099800F5505061EE200A36
:100FD00090ED9A1A60EE810A9FED6C0A80EE201A5D
:100FE000FDEEC10A10EE900A00B2009000200390BE
:100FF00002900998B0F9BC100298814272DD0C98F9
:10100000012814D04FF48040064602984FF0FF3577
:1010100000EB4001C1EB8011099800EB411B0BF57F
:101020008058B8F9C20900EBD070441026E0584847
:10103000EAE70C982146012841F6D010584404D024
:1010400002F0E1FF01280DD016E002F0F0FF0128C8
:1010500012D10BEB840000F58050D0F8D009B042DB
:1010600008DC09E00BEB840000F58050D0F8D009D3
:10107000B04201DA25460646641C24B2B8F9C2091A
:10108000401EA042D5DC681C74D000EE106A4FF000
:10109000000AB8EEC00A28EE000ABDEEC00A10EE43
:1010A000100A04900098404200B2019004E000BF92
:1010B000BAF1000F17D000982918A1EB090004B26B
:1010C000B8F9C209C21700EB9272B4EBA20F00DAB2
:1010D000941049440EB2B04200DA06464FF0FF3792
:1010E000761E24E04AE00198E6E70C9801280BEB15
:1010F000840000F58050D0F8D01904980BD08142BC
:1011000013DA41F6D0110BEB0100214602F07BFF10
:10111000012809D009E0814207DD41F6D01058448A
:10112000214602F084FFF3E72746641C24B2B44250
:10113000DBDB781C17D0E81B01D5791B00E00146EA
:10114000009A891A04D5002800D5781B101A03E0EC
:10115000002800D5781B801A1699884203DA039874
:10116000401C00B203900AF101000FFA80FABAF1B4
:10117000020F9DDB0298401C00B239E7039805B0CE
:10118000BDEC028B06B0BDE8F08F00000000964475
:1011900000C0FFFF2DE9F04300F54051B1F91E26D4
:1011A000322A4EDBB1F930267D2A4ADBB1F91236FC
:1011B000B0F91C50D21A14B2AA4242DA002C40DB19
:1011C000B1F914564FF0000C5A1B14B2042C38DD40
:1011D0000023B0F9BC802CE000EB8306002206F56A
:1011E000405620E003EB430900EB4907174407F59D
:1011F000405797F8AC75A7B900EB890707EB420792
:1012000043F2945937F90990B9EB050701D5A5EBDD
:1012100009073FB2A74204DA3C46A1F812964FF004
:10122000010C521C12B2B6F98C759742DADC5B1CC9
:101230001BB29845D0DCBCF1000F02D16D1CA1F8A7
:101240001256BDE8F08310B500F5405191F88026A4
:10125000E2BBB1F91236B0F99020934202DA921C47
:10126000A1F8122691F85026012A32D1D1F8882609
:1012700062BBB1F94C26B1F91246A2F10A039C42B5
:1012800027DA412A25DA00F56052B0F8BC3092ED39
:10129000170A022B07D1D2ED180A30EE200AF6EE1B
:1012A000000A20EE200AD0ED0D0ABDEEC00A10EEB5
:1012B000102A12B200EE102AB8EEC00AF4EEC00AEC
:1012C000F1EE10FA05DDB1F8142600E001E0A1F816
:1012D000122691F88626002A07D1B1F91226B0F914
:1012E0002200824201DDA1F8120610BD70B5002176
:1012F00046E000BF01EB410500EB450202F5545208
:1013000093695362938B138501EB4103C3EB811304
:1013100000EB431303F5CC5403F58053A66C9661A0
:10132000B4F84C4094832C1804F5545204F55654E8
:1013300032F8306FD68096781672268F168094F821
:101340003A40947000EB8502A2F6A42202F5804296
:1013500092E87000183282E87000303A92E870002B
:10136000183282E8700000EB4102A2F6C42202F5B6
:101370008042491C14889480B3F8CE39138009B296
:10138000B0F9BC208A42B5DC42F60811095A00F5D2
:101390004050A0F8201690F8291680F85B1690F8B7
:1013A000281680F85A16D0F87C13C0F88013B0F8CD
:1013B0003016A0F8321670BD2DE9F04F00252A46F0
:1013C000AB4600F54051B0F9BC7081E002EB42043D
:1013D000C4EB821400EB441641F6CE1402EB420A31
:1013E00000230AEB0009A45F2FE000BF09EB030C08
:1013F0000CF5405C9CF8B8C5BCF1000F23D106EB9E
:10140000430C0CF5805CB1F91286BCF9C8C9A8EB95
:101410000C0C0CF1020CBCF1040F14D891F89838A4
:101420000125012B13D1B1F91E36032B0FDB91F8E7
:101430005134012B0BD1B1F81236B1F83C461B1BCD
:10144000A1F85E3603E05B1C1BB29C42CEDC00EBD5
:10145000820404F54054002300EB4A0600EB8A099D
:10146000B4F98C452EE000BF06EB030C0CF5405C94
:101470009CF8ACC5BCF1000F22D109EB430C0CF574
:10148000405CB1F91286BCF994C5A8EB0C0C0CF1C8
:10149000020CBCF1040F13D891F8980801282BD145
:1014A000B1F91E06032827DB91F85104012823D146
:1014B000B1F81206B1F83C26801AA1F85E061BE0CE
:1014C0005B1C1BB29C42CFDC012D15D0521C12B20A
:1014D00097423FF77BAF012D0ED0A1F8C2B8B1F80B
:1014E000C408401C00B2A1F8C408082802DB02208E
:1014F000A1F8BE08BDE8F08FB1F8C208401C00B2E8
:10150000A1F8C208A1F8C4B80828F3DB0120EFE76E
:101510000020014908707047ED2400202DE9F05F9C
:10152000074689463E463D46A9F1010000EB050B02
:101530004FF0000A50E029462AA007F089FF002456
:1015400003E02BA007F084FF641C05F00F00A0420D
:10155000F7D80BE095F80080414626A007F078FF09
:101560006D1C5D4501D9641C02E0641C102CF1DB8C
:1015700000BF03E021A007F06BFF641C102CF9DB17
:101580001EA007F065FF002403E01DA007F060FF28
:10159000641C06F00F00A042F7D815E096F8008012
:1015A000B8F1200F08DBB8F17A0F05DC414615A031
:1015B00007F04EFF761C03E013A007F049FF761CEE
:1015C0005E4500D902E0641C102CE7DB00BF102C44
:1015D00000D004E00AF1010ABAF1200FABDB00BF32
:1015E000BDE8F09F0A0D2530386C783A0000000005
:1015F000202020002025303278000000202000002C
:1016000020000000256300002E0000002DE9F047B7
:1016100000F540542DED048B05460E46B4F91E0628
:10162000002730B1032803DB94F85104012811D0BE
:101630007CE1A4F85E76A4F83E7646B1B4F81206D2
:10164000A4F83406D4F88403C4F838066EE1B4F87C
:101650001406F5E743F66C004059B0F17D5FE7DD15
:10166000284600F089F994F82806F7EE008AB6EECD
:10167000008A01284DD094F82906012873D1B4F9C5
:101680003006B4F9341688426DDAC0EBC000C217D8
:1016900000EB527040F3CF00A4F83606401A00EE7B
:1016A000100AD4F83816D4F88403B8EEC09A401A59
:1016B00000EE100AB5F9260095ED0A1A00EE900A20
:1016C000B8EEC00AF8EEE00A40EE010AB1EE401AA8
:1016D00081EE200A07F010FF38EEC00AB4F9341684
:1016E00009EE008ABDEEC80A10EE100A01FA80F079
:1016F000A4F83C06284603F069F9002E33D1B4F96A
:101700003C06B4F9141688422DDAB4F85E16084483
:1017100088E0B4F93016B4F93406814223DD081AA2
:10172000A4F8361600EE100AD4F83826D4F884034C
:10173000B8EEC09A801A00EE100AB5F92600884A61
:10174000B8EEC00A00EE900A95ED0A1A10EE101AD3
:10175000F8EEE00A914207DD21EE001AF5EE081AD4
:1017600041EE210A02E05FE040EE010AB1EE401ACC
:1017700081EE200A07F0C0FE38EEC00AB4F9341634
:1017800009EE008ABDEEC80A10EE100A01FA80F0D8
:10179000A4F83C06284603F019F9B4F95E060028BF
:1017A00003DDB4F91E061E2803DAB4F91E06642808
:1017B00001DBA4F85E7606B3B4F93006B4F912166C
:1017C00000EBD072B1EB620F01DB814256DD012EDE
:1017D00013D1052000EB620081420EDA2846FFF7A4
:1017E00009FB50B1B4F93006B4F9121600EBD0720F
:1017F000B1EB620F18DA822816DAB4F91406B5F9DB
:101800004A104218B4F93C168A4206DAD4F82C364B
:10181000D4F87C23B2EB430F2EDB814208DDB4F811
:101820005E060844A4F81206BDEC048BBDE8F08700
:10183000B4F91236B4F93026934203DD421F9142C7
:101840001ADCF1E7B4F984160429EDDB00EE103A56
:10185000F8EEC00A00EE102AB8EEC00A9FED411A59
:1018600020EE010AF4EEC00AF1EE10FA04D3B4F946
:101870001E16B1F5967FD7DB401CD3E7B4F91E26C0
:10188000B5F926309A42CFDD00EE101A9FED361AD8
:10189000F8EEC00A00EE100AB8EEC00A20EE010A07
:1018A000F4EEC00AF1EE10FABED22846FFF7A2FA13
:1018B000012836D10022B5F9BC7030E002EB4203BA
:1018C00003EB050902EB4203C3EB821341F6CE168C
:1018D00005EB43130021F65E1BE000BF09EB010C92
:1018E0000CF5405C9CF8B8C5BCF1000F0FD103EBC0
:1018F000410C0CF5805CB4F91286BCF9C8C9A8EBA0
:101900000C0CBCF1030F02DA401CC0B203E0491C0E
:1019100009B28E42E2DC022886D0521C12B29742F3
:10192000CCDC022880D2B4F81406A5E7B4F912067C
:10193000B4F93016884284DA94F82816012980D147
:1019400094F852160129FAD1002EF8D1B4F91416E0
:10195000401A401D0A287FF674AFA4F8121663E7F8
:101960000000F0416666663F6666263F0120014939
:1019700008707047ED240020FEB500F54054054680
:1019800094EDDF0AB8EEC00A07F0AAFEB5F95800D8
:10199000B5F9542000EE900AF8EEE00A20EE200A95
:1019A000BDEEC00A10EE100A01B2B4F91E06904254
:1019B0000FDAB5F95600D5F8B0205043D4F87C239F
:1019C000904206DDB4F93006884201DDA4F83016F5
:1019D000FEBDB4F93026881A00D5501A03B202EBC6
:1019E000D276A1EB6600ADF80030002801D5C1EB3E
:1019F0006600ADF80200504211EB400001D5C1EB8A
:101A0000420005F50055ADF80400B5F90859481B2A
:101A100000D5681AADF80600B4F93276C81B00D5B7
:101A2000781AADF8080000210120EC463CF910704E
:101A30009F4201DA3B460146401C00B20428F5DB18
:101A4000012906D0022906D00329C1D1A4F83056B5
:101A5000FEBD701000E05000A4F83006FEBD00008E
:101A6000F0B590F8CA1001290ED0B7EE000A00F5C3
:101A70004051002381F8AC38B1F9E624002A75DD25
:101A80000022B0F9BC6028E09FED390AEFE700BF03
:101A900002EB4204C4EB821400EB441404F58054BE
:101AA000B1F99E74B4F9C849E51BED1C062D09D99E
:101AB00004EBD47CC7EB6C05002D01D5A7EB6C05BE
:101AC000042D08DA42F608152D5E641B241D082C2F
:101AD00001D95B1C1BB2521C12B29642D8DC9E424A
:101AE00044D100231D461F461A461FE002EB420464
:101AF000C4EB821400EB441442F2501C521C5CF8FC
:101B000004C004F5805412B2B4F9C8E9B4F9CA4962
:101B10003CF82EE03CF8244073442C4425B2B1F943
:101B20009E441BB23CF824403C4427B29642DDDC84
:101B300000EE903AB8EEE01A00EE905AF8EEE01A95
:101B4000C1EE210A90ED291A21EE000AF4EEC00A36
:101B5000F1EE10FA0ADDBB4205DD00F58050B0F869
:101B6000C809A1F89E04012081F8AC08F0BD00006E
:101B7000CDCCAC3F00F5405191F85026012A16D14A
:101B800091F8C026012A13D0D1F8880620B1D1F8E7
:101B90008423101A32280ADD91F85106012803D057
:101BA00091F85104002802D1012081F8C006704745
:101BB00091F85226012A02D1002281F8C026002283
:101BC000B0F9BC0001E0521C12B29042FBDC70473D
:101BD0002DE9F04F00F5405191F82826012A5CD1FB
:101BE000B1F930C6BCF1820F57DCB1F91E26032AC9
:101BF00053DDD1F82C36D1F87C239A424DDDD0F854
:101C0000B03003EBC304C4EB83139A4245DD0023D9
:101C1000B0F9BC703FE003EB4304C4EB831400EB6A
:101C20004416002206F580552FE000BF03EB430465
:101C30000444144404F5405494F8B8451CBB06EB26
:101C4000420404F58054B1F91286B4F9C849B4EBE2
:101C5000480F18DDB4EB4C0F15DAB1F914B604EBEC
:101C6000D479B0F91CA0ABEB6908B8F1000F01D52D
:101C7000CBEB69080AEBDA74B8EB640F03DA4FEACE
:101C80006904A1F81246521C12B2B5F9CE49944229
:101C9000CCDC5B1C1BB29F42BDDCBDE8F08F0000BA
:101CA0002DE9F04102238B4000EE103A2DED028B1E
:101CB0000446B8EEC00ADFED7A0A5F10012080EE1C
:101CC000808A02461FE0904213DD04EB820604EB9B
:101CD000800556ED010A15ED010A45ED010A06EDF4
:101CE000010AD6ED000A95ED000AC5ED000A86ED61
:101CF000000A394601E0401A4910022901DB8842F6
:101D0000F9DC0844921C9A42DDDB0221654FB7EEF4
:101D1000003ADFED652A9FE000EE101A4D00B8EEA4
:101D2000C01A9FED620A4FF4807292FBF1F0C0EE90
:101D3000010A01EE100AB8EEC11A80EE802ADFED2A
:101D40005C1A92FBF5F2403812EE211AB6EE002A28
:101D500020EE822AC2EE000A00EE102AB8EEC00A77
:101D600010EEA10A01D500F58070F0EE430A07EBF2
:101D7000800030EEC12AD0ED001A403A21EE822ACE
:101D8000D0ED011A01EE812A01D502F5807207EB30
:101D9000820070EEC01A90ED001A012621EE211A81
:101DA000D0ED011A01EE801AB8EE000A21EE000A09
